{
  "contractName": "Artifaqt",
  "abi": [
    {
      "constant": true,
      "inputs": [
        {
          "name": "interfaceID",
          "type": "bytes4"
        }
      ],
      "name": "supportsInterface",
      "outputs": [
        {
          "name": "",
          "type": "bool"
        }
      ],
      "payable": false,
      "stateMutability": "view",
      "type": "function"
    },
    {
      "constant": true,
      "inputs": [],
      "name": "name",
      "outputs": [
        {
          "name": "",
          "type": "string"
        }
      ],
      "payable": false,
      "stateMutability": "view",
      "type": "function"
    },
    {
      "constant": true,
      "inputs": [
        {
          "name": "_tokenId",
          "type": "uint256"
        }
      ],
      "name": "getApproved",
      "outputs": [
        {
          "name": "",
          "type": "address"
        }
      ],
      "payable": false,
      "stateMutability": "view",
      "type": "function"
    },
    {
      "constant": false,
      "inputs": [
        {
          "name": "_approved",
          "type": "address"
        },
        {
          "name": "_tokenId",
          "type": "uint256"
        }
      ],
      "name": "approve",
      "outputs": [],
      "payable": true,
      "stateMutability": "payable",
      "type": "function"
    },
    {
      "constant": true,
      "inputs": [],
      "name": "totalSupply",
      "outputs": [
        {
          "name": "",
          "type": "uint256"
        }
      ],
      "payable": false,
      "stateMutability": "view",
      "type": "function"
    },
    {
      "constant": false,
      "inputs": [
        {
          "name": "_from",
          "type": "address"
        },
        {
          "name": "_to",
          "type": "address"
        },
        {
          "name": "_tokenId",
          "type": "uint256"
        }
      ],
      "name": "transferFrom",
      "outputs": [],
      "payable": true,
      "stateMutability": "payable",
      "type": "function"
    },
    {
      "constant": true,
      "inputs": [
        {
          "name": "_owner",
          "type": "address"
        },
        {
          "name": "_index",
          "type": "uint256"
        }
      ],
      "name": "tokenOfOwnerByIndex",
      "outputs": [
        {
          "name": "_tokenId",
          "type": "uint256"
        }
      ],
      "payable": false,
      "stateMutability": "view",
      "type": "function"
    },
    {
      "constant": false,
      "inputs": [
        {
          "name": "_from",
          "type": "address"
        },
        {
          "name": "_to",
          "type": "address"
        },
        {
          "name": "_tokenId",
          "type": "uint256"
        }
      ],
      "name": "safeTransferFrom",
      "outputs": [],
      "payable": true,
      "stateMutability": "payable",
      "type": "function"
    },
    {
      "constant": true,
      "inputs": [
        {
          "name": "_index",
          "type": "uint256"
        }
      ],
      "name": "tokenByIndex",
      "outputs": [
        {
          "name": "",
          "type": "uint256"
        }
      ],
      "payable": false,
      "stateMutability": "view",
      "type": "function"
    },
    {
      "constant": true,
      "inputs": [
        {
          "name": "_tokenId",
          "type": "uint256"
        }
      ],
      "name": "ownerOf",
      "outputs": [
        {
          "name": "",
          "type": "address"
        }
      ],
      "payable": false,
      "stateMutability": "view",
      "type": "function"
    },
    {
      "constant": true,
      "inputs": [
        {
          "name": "_owner",
          "type": "address"
        }
      ],
      "name": "balanceOf",
      "outputs": [
        {
          "name": "",
          "type": "uint256"
        }
      ],
      "payable": false,
      "stateMutability": "view",
      "type": "function"
    },
    {
      "constant": true,
      "inputs": [],
      "name": "symbol",
      "outputs": [
        {
          "name": "",
          "type": "string"
        }
      ],
      "payable": false,
      "stateMutability": "view",
      "type": "function"
    },
    {
      "constant": false,
      "inputs": [
        {
          "name": "_operator",
          "type": "address"
        },
        {
          "name": "_approved",
          "type": "bool"
        }
      ],
      "name": "setApprovalForAll",
      "outputs": [],
      "payable": false,
      "stateMutability": "nonpayable",
      "type": "function"
    },
    {
      "constant": false,
      "inputs": [
        {
          "name": "_from",
          "type": "address"
        },
        {
          "name": "_to",
          "type": "address"
        },
        {
          "name": "_tokenId",
          "type": "uint256"
        },
        {
          "name": "data",
          "type": "bytes"
        }
      ],
      "name": "safeTransferFrom",
      "outputs": [],
      "payable": true,
      "stateMutability": "payable",
      "type": "function"
    },
    {
      "constant": true,
      "inputs": [
        {
          "name": "_tokenId",
          "type": "uint256"
        }
      ],
      "name": "tokenURI",
      "outputs": [
        {
          "name": "",
          "type": "string"
        }
      ],
      "payable": false,
      "stateMutability": "view",
      "type": "function"
    },
    {
      "constant": true,
      "inputs": [
        {
          "name": "_owner",
          "type": "address"
        },
        {
          "name": "_operator",
          "type": "address"
        }
      ],
      "name": "isApprovedForAll",
      "outputs": [
        {
          "name": "",
          "type": "bool"
        }
      ],
      "payable": false,
      "stateMutability": "view",
      "type": "function"
    },
    {
      "constant": true,
      "inputs": [],
      "name": "admin",
      "outputs": [
        {
          "name": "",
          "type": "address"
        }
      ],
      "payable": false,
      "stateMutability": "view",
      "type": "function"
    },
    {
      "inputs": [],
      "payable": false,
      "stateMutability": "nonpayable",
      "type": "constructor"
    },
    {
      "anonymous": false,
      "inputs": [
        {
          "indexed": true,
          "name": "_from",
          "type": "address"
        },
        {
          "indexed": true,
          "name": "_to",
          "type": "address"
        },
        {
          "indexed": true,
          "name": "_tokenId",
          "type": "uint256"
        }
      ],
      "name": "Transfer",
      "type": "event"
    },
    {
      "anonymous": false,
      "inputs": [
        {
          "indexed": true,
          "name": "_owner",
          "type": "address"
        },
        {
          "indexed": true,
          "name": "_approved",
          "type": "address"
        },
        {
          "indexed": true,
          "name": "_tokenId",
          "type": "uint256"
        }
      ],
      "name": "Approval",
      "type": "event"
    },
    {
      "anonymous": false,
      "inputs": [
        {
          "indexed": true,
          "name": "_owner",
          "type": "address"
        },
        {
          "indexed": true,
          "name": "_operator",
          "type": "address"
        },
        {
          "indexed": false,
          "name": "_approved",
          "type": "bool"
        }
      ],
      "name": "ApprovalForAll",
      "type": "event"
    },
    {
      "constant": false,
      "inputs": [
        {
          "name": "_sinPayload",
          "type": "bytes32"
        }
      ],
      "name": "claimToken",
      "outputs": [],
      "payable": false,
      "stateMutability": "nonpayable",
      "type": "function"
    },
    {
      "constant": false,
      "inputs": [
        {
          "name": "_to",
          "type": "address"
        },
        {
          "name": "_tokenType",
          "type": "uint256"
        }
      ],
      "name": "mintToken",
      "outputs": [],
      "payable": false,
      "stateMutability": "nonpayable",
      "type": "function"
    },
    {
      "constant": true,
      "inputs": [
        {
          "name": "_tokenId",
          "type": "uint256"
        }
      ],
      "name": "getToken",
      "outputs": [
        {
          "name": "",
          "type": "uint256"
        },
        {
          "name": "",
          "type": "address"
        },
        {
          "name": "",
          "type": "uint256"
        }
      ],
      "payable": false,
      "stateMutability": "view",
      "type": "function"
    },
    {
      "constant": true,
      "inputs": [
        {
          "name": "_player",
          "type": "address"
        }
      ],
      "name": "getTokenTypes",
      "outputs": [
        {
          "name": "",
          "type": "uint256[]"
        }
      ],
      "payable": false,
      "stateMutability": "view",
      "type": "function"
    }
  ],
  "bytecode": "0x60806040523480156200001157600080fd5b50604080517f54686f73652077686f2077657265206e657665722062617074697365642e00008152815190819003601e018120600b80546001818101835560008381527f0175b7a638427703f0dbe7bb9bbf987a2551717b34e79f33b5b1008d1fa01db9928301949094557f54686f73652077686f206761766520696e746f20706c6561737572652e0000008552855194859003601d9081018620845480840186558587528401557f54686f73652077686f20696e64756c67656420696e206578636573732e0000008652865195869003018520835480830185558486528301557f54686f73652077686f20686f61726420616e64207370656e642077617374656685527f756c6c792e0000000000000000000000000000000000000000000000000000006020868101919091528651958690036025018620845480840186558587528401557f54686f736520636f6e73756d656420627920616e67657220616e64206861747286527f65642e0000000000000000000000000000000000000000000000000000000000868201528651958690036023018620845480840186558587528401557f54686f73652077686f20776f72736869707065642066616c73652069646f6c7386527f2e00000000000000000000000000000000000000000000000000000000000000868201528651958690036021018620845480840186558587528401557f54686f73652076696f6c656e7420616761696e7374206f74686572732c206f6e86527f65e28099732073656c662c20616e6420476f642e0000000000000000000000008682015286519586900360349081018720855480850187558688528501557f54686f73652077686f2075736564206c69657320616e6420646563657074696f87527f6e20666f7220706572736f6e616c206761696e2e00000000000000000000000087830152875196879003018620845480840186558587528401557f54686f73652077686f2068617665206265747261796564207468656972206c6f86527f766564206f6e65732e000000000000000000000000000000000000000000000086820152865195869003602901862084549283018555938552910191909155600a8054600160a060020a0319163317905582840190935260088083527f4172746966617174000000000000000000000000000000000000000000000000929093019182526200038d92909190620003db565b506040805180820190915260038082527f41545100000000000000000000000000000000000000000000000000000000006020909201918252620003d491600191620003db565b5062000480565b828054600181600116156101000203166002900490600052602060002090601f016020900481019282601f106200041e57805160ff19168380011785556200044e565b828001600101855582156200044e579182015b828111156200044e57825182559160200191906001019062000431565b506200045c92915062000460565b5090565b6200047d91905b808211156200045c576000815560010162000467565b90565b61165980620004906000396000f30060806040526004361061011c5763ffffffff7c010000000000000000000000000000000000000000000000000000000060003504166301ffc9a7811461012157806306fdde031461016c578063081812fc146101f6578063095ea7b31461022a57806318160ddd1461024357806323b872dd1461026a5780632f745c591461028757806342842e0e146102ab5780634f6ccce7146102c85780636352211e146102e057806370a08231146102f857806379c650681461031957806395d89b411461033d57806397de8db014610352578063a22cb465146103c3578063a5bfa9a9146103e9578063b88d4fde14610401578063c87b56dd1461042d578063e4b50cb814610445578063e985e9c514610483578063f851a440146104aa575b600080fd5b34801561012d57600080fd5b506101587bffffffffffffffffffffffffffffffffffffffffffffffffffffffff19600435166104bf565b604080519115158252519081900360200190f35b34801561017857600080fd5b506101816105ab565b6040805160208082528351818301528351919283929083019185019080838360005b838110156101bb5781810151838201526020016101a3565b50505050905090810190601f1680156101e85780820380516001836020036101000a031916815260200191505b509250505060405180910390f35b34801561020257600080fd5b5061020e600435610639565b60408051600160a060020a039092168252519081900360200190f35b610241600160a060020a036004351660243561067b565b005b34801561024f57600080fd5b506102586106e1565b60408051918252519081900360200190f35b610241600160a060020a03600435811690602435166044356106e8565b34801561029357600080fd5b50610258600160a060020a0360043516602435610794565b610241600160a060020a0360043581169060243516604435610833565b3480156102d457600080fd5b506102586004356109c6565b3480156102ec57600080fd5b5061020e6004356109f7565b34801561030457600080fd5b50610258600160a060020a0360043516610a39565b34801561032557600080fd5b50610241600160a060020a0360043516602435610a6c565b34801561034957600080fd5b50610181610ad9565b34801561035e57600080fd5b50610373600160a060020a0360043516610b33565b60408051602080825283518183015283519192839290830191858101910280838360005b838110156103af578181015183820152602001610397565b505050509050019250505060405180910390f35b3480156103cf57600080fd5b50610241600160a060020a03600435166024351515610c07565b3480156103f557600080fd5b50610241600435610c8b565b610241600160a060020a0360048035821691602480359091169160443591606435908101910135610dcf565b34801561043957600080fd5b50610181600435610fdb565b34801561045157600080fd5b5061045d60043561107c565b60408051938452600160a060020a03909216602084015282820152519081900360600190f35b34801561048f57600080fd5b50610158600160a060020a03600435811690602435166110af565b3480156104b657600080fd5b5061020e6110dd565b60007bffffffffffffffffffffffffffffffffffffffffffffffffffffffff1982167f80ac58cd00000000000000000000000000000000000000000000000000000000148061054c57507bffffffffffffffffffffffffffffffffffffffffffffffffffffffff1982167f5b5e139f00000000000000000000000000000000000000000000000000000000145b8061059557507bffffffffffffffffffffffffffffffffffffffffffffffffffffffff1982167f780e9d6300000000000000000000000000000000000000000000000000000000145b156105a2575060016105a6565b5060005b919050565b6000805460408051602060026001851615610100026000190190941693909304601f810184900484028201840190925281815292918301828280156106315780601f1061060657610100808354040283529160200191610631565b820191906000526020600020905b81548152906001019060200180831161061457829003601f168201915b505050505081565b6000818152600560205260408120548290600160a060020a0316151561065e57600080fd5b5050600090815260076020526040902054600160a060020a031690565b6000818152600560205260408120548290600160a060020a031615156106a057600080fd5b826106aa816110ec565b15156106b557600080fd5b600084815260056020526040902054600160a060020a031692506106da838686611143565b5050505050565b6002545b90565b6000818152600560205260409020548190600160a060020a0316151561070d57600080fd5b838383610719816110ec565b8061073a5750600081815260076020526040902054600160a060020a031633145b151561074557600080fd5b600081815260056020526040902054600160a060020a0384811691161461076b57600080fd5b600160a060020a038216151561078057600080fd5b61078b8787876111fc565b50505050505050565b600080805260056020527f05b8ccbb9d4d8fb16ea74ce3c29a41f1b461fbdaff4714a0d9a8eb05499746bc548190600160a060020a031615156107d657600080fd5b600160a060020a03841660009081526004602052604090205483106107fa57600080fd5b600160a060020a038416600090815260046020526040902080548490811061081e57fe5b906000526020600020015491505b5092915050565b6000818152600560205260408120548290600160a060020a0316151561085857600080fd5b848484610864816110ec565b806108855750600081815260076020526040902054600160a060020a031633145b151561089057600080fd5b600081815260056020526040902054600160a060020a038481169116146108b657600080fd5b600160a060020a03821615156108cb57600080fd5b6108d68888886111fc565b863b945060008511156109bc57604080517f150b7a0200000000000000000000000000000000000000000000000000000000808252336004830152600160a060020a038b81166024840152604483018a90526080606484015260006084840181905293519193908b169263150b7a029260c48083019360209383900390910190829087803b15801561096757600080fd5b505af115801561097b573d6000803e3d6000fd5b505050506040513d602081101561099157600080fd5b50517bffffffffffffffffffffffffffffffffffffffffffffffffffffffff1916146109bc57600080fd5b5050505050505050565b60025460009082106109d757600080fd5b60028054839081106109e557fe5b90600052602060002001549050919050565b6000818152600560205260408120548290600160a060020a03161515610a1c57600080fd5b5050600090815260056020526040902054600160a060020a031690565b6000600160a060020a0382161515610a5057600080fd5b50600160a060020a031660009081526004602052604090205490565b600a54600090600160a060020a03163314610a8657600080fd5b610a8e6106e1565b9050610a9b83828461127f565b8083600160a060020a031660007fddf252ad1be2c89b69c2b068fc378daa952ba7f163c4a11628f55a4df523b3ef60405160405180910390a4505050565b60018054604080516020600284861615610100026000190190941693909304601f810184900484028201840190925281815292918301828280156106315780601f1061060657610100808354040283529160200191610631565b600160a060020a03811660009081526004602090815260408083205481518181528184028101909301909152606092839290918015610b7c578160200160208202803883390190505b509150600090505b600160a060020a03841660009081526004602052604090205481101561082c57600160a060020a03841660009081526004602052604081208054600c92919084908110610bcd57fe5b90600052602060002001548152602001908152602001600020548282815181101515610bf557fe5b60209081029091010152600101610b84565b600160a060020a038216331415610c1d57600080fd5b336000818152600860209081526040808320600160a060020a03871680855290835292819020805460ff1916861515908117909155815190815290519293927f17307eab39ab6107e8899845ad3d59bd9653f200f220920489ca2b5937696c31929181900390910190a35050565b60008080805b6009821015610d6157600b805483908110610ca857fe5b6000918252602091829020015460408051808401929092526c010000000000000000000000003302828201528051603481840301815260549092019081905281519192909182918401908083835b60208310610d155780518252601f199092019160209182019101610cf6565b5181516020939093036101000a600019018019909116921691909117905260405192018290039091208814159250610d569150505781935060019250610d61565b600190910190610c91565b600183151514610d7057600080fd5b610d7a338561129c565b15610d8457600080fd5b610d8c6106e1565b9050610d9933828661127f565b604051819033906000907fddf252ad1be2c89b69c2b068fc378daa952ba7f163c4a11628f55a4df523b3ef908290a45050505050565b6000838152600560205260408120548490600160a060020a03161515610df457600080fd5b868686610e00816110ec565b80610e215750600081815260076020526040902054600160a060020a031633145b1515610e2c57600080fd5b600081815260056020526040902054600160a060020a03848116911614610e5257600080fd5b600160a060020a0382161515610e6757600080fd5b610e728a8a8a6111fc565b883b94506000851115610fcf5763150b7a027c0100000000000000000000000000000000000000000000000000000000027bffffffffffffffffffffffffffffffffffffffffffffffffffffffff191689600160a060020a031663150b7a02338d8c8c8c6040518663ffffffff167c01000000000000000000000000000000000000000000000000000000000281526004018086600160a060020a0316600160a060020a0316815260200185600160a060020a0316600160a060020a0316815260200184815260200180602001828103825284848281815260200192508082843782019150509650505050505050602060405180830381600087803b158015610f7a57600080fd5b505af1158015610f8e573d6000803e3d6000fd5b505050506040513d6020811015610fa457600080fd5b50517bffffffffffffffffffffffffffffffffffffffffffffffffffffffff191614610fcf57600080fd5b50505050505050505050565b60008181526009602090815260409182902080548351601f60026000196101006001861615020190931692909204918201849004840281018401909452808452606093928301828280156110705780601f1061104557610100808354040283529160200191611070565b820191906000526020600020905b81548152906001019060200180831161105357829003601f168201915b50505050509050919050565b6000908152600360209081526040808320546005835281842054600c9093529220549192600160a060020a039091169190565b600160a060020a03918216600090815260086020908152604080832093909416825291909152205460ff1690565b600a54600160a060020a031681565b600081815260056020526040812054600160a060020a031633148061113d5750600082815260056020908152604080832054600160a060020a031683526008825280832033845290915290205460ff165b92915050565b600160a060020a03828116908416141561115c57600080fd5b600081815260076020526040902054600160a060020a03161580156111885750600160a060020a038216155b1561119257600080fd5b600081815260076020526040808220805473ffffffffffffffffffffffffffffffffffffffff1916600160a060020a0386811691821790925591518493918716917f8c5be1e5ebec7d5bd14f71427d1e84f3dd0314c0f7b2291e5b200ac8c7c3b92591a45b505050565b600081815260076020526040902054600160a060020a0316156112255761122583600083611143565b61122f8382611326565b6112398282611542565b8082600160a060020a031684600160a060020a03167fddf252ad1be2c89b69c2b068fc378daa952ba7f163c4a11628f55a4df523b3ef60405160405180910390a4505050565b6112898383611542565b6000918252600c60205260409091205550565b6000805b600160a060020a03841660009081526004602052604090205481101561131c57600160a060020a038416600090815260046020526040812080548592600c929091859081106112eb57fe5b90600052602060002001548152602001908152602001600020541415611314576001915061082c565b6001016112a0565b5060009392505050565b600081815260036020526040812054600280549192908190600019840184811061134c57fe5b906000526020600020015460028581548110151561136657fe5b9060005260206000200181905550836003600060026001870381548110151561138b57fe5b90600052602060002001548152602001908152602001600020819055506002600184038154811015156113ba57fe5b60009182526020822001556002805460001901906113d890826115f0565b505050600083815260066020908152604080832054600160a060020a03881684526004909252909120805490600019820182811061141257fe5b6000918252602080832090910154600160a060020a03891683526004909152604090912080548490811061144257fe5b90600052602060002001819055508160066000600460008a600160a060020a0316600160a060020a031681526020019081526020016000206001850381548110151561148a57fe5b90600052602060002001548152602001908152602001600020819055506004600087600160a060020a0316600160a060020a03168152602001908152602001600020600182038154811015156114dc57fe5b60009182526020808320909101829055600160a060020a038816825260049052604090208054600019019061151190826115f0565b50505060009283525050600560205260409020805473ffffffffffffffffffffffffffffffffffffffff1916905550565b60028054600181810183557f405787fa12a823e0f2b7631cc41b3ba8828b3321ca811111fa75cd3aa3bb5ace909101839055905460008381526003602090815260408083206000199485019055600582528083208054600160a060020a0390981673ffffffffffffffffffffffffffffffffffffffff199098168817905595825260048152858220805494850181558083528183209094018590559254938152600690925292902091019055565b8154818355818111156111f7576000838152602090206111f79181019083016106e591905b808211156116295760008155600101611615565b50905600a165627a7a72305820764a3bdded1727e0bb07d97f8731d2e3cf0214cb74ad05b2bba539d920cd2bd10029",
  "source": "pragma solidity 0.4.24;\n\nimport \"./../eip721/EIP721.sol\";\n\n\ncontract Artifaqt is EIP721 {\n    address public admin;\n\n    // Array holding the sin hashes\n    bytes32[] private sins;\n\n    // Mapping from token ID to token type\n    mapping(uint256 => uint256) internal typeOfToken;\n\n    /// @notice Contract constructor\n    /// @dev Generates the keccak256 hashes of each sin that will be used\n    /// when claiming tokens. Saves the admin. Sets a name and symbol.\n    constructor() public {\n        // Limbo\n        sins.push(keccak256(\"Those who were never baptised.\"));\n        // Lust\n        sins.push(keccak256(\"Those who gave into pleasure.\"));\n        // Gluttony\n        sins.push(keccak256(\"Those who indulged in excess.\"));\n        // Avarice\n        sins.push(keccak256(\"Those who hoard and spend wastefully.\"));\n        // Wrath\n        sins.push(keccak256(\"Those consumed by anger and hatred.\"));\n        // Heresy\n        sins.push(keccak256(\"Those who worshipped false idols.\"));\n        // Violence\n        sins.push(keccak256(\"Those violent against others, one’s self, and God.\"));\n        // Fraud\n        sins.push(keccak256(\"Those who used lies and deception for personal gain.\"));\n        // Treachery\n        sins.push(keccak256(\"Those who have betrayed their loved ones.\"));\n\n        // Set owner\n        admin = msg.sender;\n\n        // Default name and symbol\n        name = \"Artifaqt\";\n        symbol = \"ATQ\";\n    }\n\n    /// @notice Claim tokens by providing the sin payload\n    /// @dev Reverts unless the payload was correctly created\n    /// @param _sinPayload = keccak256(keccak256(sin) + playerAddress)\n    /// sin must be one of strings hashed in the constructor that the player will find scattered across the DevCon4 conference\n    function claimToken(\n        bytes32 _sinPayload\n    ) external {\n        // Make sure it's the correct sin\n        uint256 tokenType;\n        bool found = false;\n        for(uint256 i = 0; i < 9; i++) {\n            if (_sinPayload == keccak256(abi.encodePacked(sins[i], msg.sender))) {\n                tokenType = i;\n                found = true;\n                break;\n            }\n        }\n        require(found == true);\n\n        // Make sure the user does not have this type of token\n        require(ownerHasTokenType(msg.sender, tokenType) == false);\n\n        // Create and add token\n        uint256 tokenId = totalSupply();\n        addToken(msg.sender, tokenId, tokenType);\n\n        // Emit create event\n        emit Transfer(0x0, msg.sender, tokenId);\n    }\n\n    /// @notice The admin can generate tokens for players\n    /// @dev Reverts unless the user already has the token type\n    /// @param _to The player's address\n    /// @param _tokenType A number from 0 to 8 representing the sin type\n    function mintToken(\n        address _to,\n        uint256 _tokenType\n    ) external onlyAdmin {\n        // Create and add token\n        uint256 tokenId = totalSupply();\n        addToken(_to, tokenId, _tokenType);\n\n        // Emit create event\n        emit Transfer(0x0, _to, tokenId);\n    }\n\n    /// @notice Returns the token id, owner and type\n    /// @dev Throws unless _tokenId exists\n    /// @param _tokenId The token by id\n    /// @return\n    /// - token index\n    /// - owner of token\n    /// - type of token\n    function getToken(\n        uint256 _tokenId\n    ) external view returns (uint256, address, uint256) {\n        return (\n            allTokensIndex[_tokenId],\n            ownerOfToken[_tokenId],\n            typeOfToken[_tokenId]\n        );\n    }\n\n    /// @notice Returns the claimed tokens for player\n    /// @dev Returns an empty array if player does not have any claimed tokens\n    /// @param _player The player's address\n    function getTokenTypes(\n        address _player\n    ) external view returns (uint256[]) {\n        uint256[] memory claimedTokens = new uint256[](ownedTokens[_player].length);\n\n        for (uint256 i = 0; i < ownedTokens[_player].length; i++) {\n            claimedTokens[i] = typeOfToken[ownedTokens[_player][i]];\n        }\n\n        return claimedTokens;\n    }\n\n    /// @notice Returns true of the `_player` has the requested `_tokenType`\n    /// @dev\n    /// @param _player The player's address\n    /// @param _tokenType A number from 0 to 8 representing the sin type\n    function ownerHasTokenType(\n        address _player,\n        uint256 _tokenType\n    ) internal view returns (bool) {\n        for (uint256 i = 0; i < ownedTokens[_player].length; i++) {\n            if (typeOfToken[ownedTokens[_player][i]] == _tokenType) {\n                return true;\n            }\n        }\n        return false;\n    }\n\n    /// @notice Adds a token for the player\n    /// @dev Calls the `super.addToken(address _to, uint256 _tokenId)` method and\n    /// saves the token type also. The `_tokenId` must not already exist.\n    /// @param _to The player's address\n    /// @param _tokenId The new token id\n    /// @param _tokenType A number from 0 to 8 representing the sin type\n    function addToken(\n        address _to,\n        uint256 _tokenId,\n        uint256 _tokenType\n    ) internal {\n        super.addToken(_to, _tokenId);\n\n        // Save token type\n        typeOfToken[_tokenId] = _tokenType;\n    }\n\n    modifier onlyAdmin() {\n        require(msg.sender == admin);\n        _;\n    }\n}",
  "sourcePath": "/Users/kale/Documents/codingStuff/prague/artifaqt/contract/contracts/artifaqt/Artifaqt.sol",
  "compiler": {
    "name": "solc",
    "version": "0.4.24+commit.e67f0147.Emscripten.clang"
  },
  "schemaVersion": "2.0.1",
  "updatedAt": "2018-10-22T19:41:41.871Z"
}