{
  "contractName": "Artifaqt",
  "abi": [
    {
      "constant": true,
      "inputs": [
        {
          "name": "interfaceID",
          "type": "bytes4"
        }
      ],
      "name": "supportsInterface",
      "outputs": [
        {
          "name": "",
          "type": "bool"
        }
      ],
      "payable": false,
      "stateMutability": "view",
      "type": "function"
    },
    {
      "constant": true,
      "inputs": [],
      "name": "name",
      "outputs": [
        {
          "name": "",
          "type": "string"
        }
      ],
      "payable": false,
      "stateMutability": "view",
      "type": "function"
    },
    {
      "constant": true,
      "inputs": [
        {
          "name": "_tokenId",
          "type": "uint256"
        }
      ],
      "name": "getApproved",
      "outputs": [
        {
          "name": "",
          "type": "address"
        }
      ],
      "payable": false,
      "stateMutability": "view",
      "type": "function"
    },
    {
      "constant": false,
      "inputs": [
        {
          "name": "_approved",
          "type": "address"
        },
        {
          "name": "_tokenId",
          "type": "uint256"
        }
      ],
      "name": "approve",
      "outputs": [],
      "payable": true,
      "stateMutability": "payable",
      "type": "function"
    },
    {
      "constant": true,
      "inputs": [],
      "name": "totalSupply",
      "outputs": [
        {
          "name": "",
          "type": "uint256"
        }
      ],
      "payable": false,
      "stateMutability": "view",
      "type": "function"
    },
    {
      "constant": false,
      "inputs": [
        {
          "name": "_from",
          "type": "address"
        },
        {
          "name": "_to",
          "type": "address"
        },
        {
          "name": "_tokenId",
          "type": "uint256"
        }
      ],
      "name": "transferFrom",
      "outputs": [],
      "payable": true,
      "stateMutability": "payable",
      "type": "function"
    },
    {
      "constant": true,
      "inputs": [
        {
          "name": "_owner",
          "type": "address"
        },
        {
          "name": "_index",
          "type": "uint256"
        }
      ],
      "name": "tokenOfOwnerByIndex",
      "outputs": [
        {
          "name": "_tokenId",
          "type": "uint256"
        }
      ],
      "payable": false,
      "stateMutability": "view",
      "type": "function"
    },
    {
      "constant": false,
      "inputs": [
        {
          "name": "_from",
          "type": "address"
        },
        {
          "name": "_to",
          "type": "address"
        },
        {
          "name": "_tokenId",
          "type": "uint256"
        }
      ],
      "name": "safeTransferFrom",
      "outputs": [],
      "payable": true,
      "stateMutability": "payable",
      "type": "function"
    },
    {
      "constant": true,
      "inputs": [
        {
          "name": "_index",
          "type": "uint256"
        }
      ],
      "name": "tokenByIndex",
      "outputs": [
        {
          "name": "",
          "type": "uint256"
        }
      ],
      "payable": false,
      "stateMutability": "view",
      "type": "function"
    },
    {
      "constant": true,
      "inputs": [
        {
          "name": "_tokenId",
          "type": "uint256"
        }
      ],
      "name": "ownerOf",
      "outputs": [
        {
          "name": "",
          "type": "address"
        }
      ],
      "payable": false,
      "stateMutability": "view",
      "type": "function"
    },
    {
      "constant": true,
      "inputs": [
        {
          "name": "_owner",
          "type": "address"
        }
      ],
      "name": "balanceOf",
      "outputs": [
        {
          "name": "",
          "type": "uint256"
        }
      ],
      "payable": false,
      "stateMutability": "view",
      "type": "function"
    },
    {
      "constant": true,
      "inputs": [],
      "name": "symbol",
      "outputs": [
        {
          "name": "",
          "type": "string"
        }
      ],
      "payable": false,
      "stateMutability": "view",
      "type": "function"
    },
    {
      "constant": false,
      "inputs": [
        {
          "name": "_operator",
          "type": "address"
        },
        {
          "name": "_approved",
          "type": "bool"
        }
      ],
      "name": "setApprovalForAll",
      "outputs": [],
      "payable": false,
      "stateMutability": "nonpayable",
      "type": "function"
    },
    {
      "constant": false,
      "inputs": [
        {
          "name": "_from",
          "type": "address"
        },
        {
          "name": "_to",
          "type": "address"
        },
        {
          "name": "_tokenId",
          "type": "uint256"
        },
        {
          "name": "data",
          "type": "bytes"
        }
      ],
      "name": "safeTransferFrom",
      "outputs": [],
      "payable": true,
      "stateMutability": "payable",
      "type": "function"
    },
    {
      "constant": true,
      "inputs": [
        {
          "name": "_tokenId",
          "type": "uint256"
        }
      ],
      "name": "tokenURI",
      "outputs": [
        {
          "name": "",
          "type": "string"
        }
      ],
      "payable": false,
      "stateMutability": "view",
      "type": "function"
    },
    {
      "constant": true,
      "inputs": [
        {
          "name": "_owner",
          "type": "address"
        },
        {
          "name": "_operator",
          "type": "address"
        }
      ],
      "name": "isApprovedForAll",
      "outputs": [
        {
          "name": "",
          "type": "bool"
        }
      ],
      "payable": false,
      "stateMutability": "view",
      "type": "function"
    },
    {
      "constant": true,
      "inputs": [],
      "name": "admin",
      "outputs": [
        {
          "name": "",
          "type": "address"
        }
      ],
      "payable": false,
      "stateMutability": "view",
      "type": "function"
    },
    {
      "inputs": [],
      "payable": false,
      "stateMutability": "nonpayable",
      "type": "constructor"
    },
    {
      "anonymous": false,
      "inputs": [
        {
          "indexed": false,
          "name": "tokenId",
          "type": "uint256"
        },
        {
          "indexed": false,
          "name": "sinType",
          "type": "uint256"
        },
        {
          "indexed": false,
          "name": "player",
          "type": "address"
        }
      ],
      "name": "TokenClaimed",
      "type": "event"
    },
    {
      "anonymous": false,
      "inputs": [
        {
          "indexed": true,
          "name": "_from",
          "type": "address"
        },
        {
          "indexed": true,
          "name": "_to",
          "type": "address"
        },
        {
          "indexed": true,
          "name": "_tokenId",
          "type": "uint256"
        }
      ],
      "name": "Transfer",
      "type": "event"
    },
    {
      "anonymous": false,
      "inputs": [
        {
          "indexed": true,
          "name": "_owner",
          "type": "address"
        },
        {
          "indexed": true,
          "name": "_approved",
          "type": "address"
        },
        {
          "indexed": true,
          "name": "_tokenId",
          "type": "uint256"
        }
      ],
      "name": "Approval",
      "type": "event"
    },
    {
      "anonymous": false,
      "inputs": [
        {
          "indexed": true,
          "name": "_owner",
          "type": "address"
        },
        {
          "indexed": true,
          "name": "_operator",
          "type": "address"
        },
        {
          "indexed": false,
          "name": "_approved",
          "type": "bool"
        }
      ],
      "name": "ApprovalForAll",
      "type": "event"
    },
    {
      "constant": false,
      "inputs": [
        {
          "name": "_sin",
          "type": "bytes32"
        },
        {
          "name": "_sinIndex",
          "type": "uint256"
        }
      ],
      "name": "claimToken",
      "outputs": [],
      "payable": false,
      "stateMutability": "nonpayable",
      "type": "function"
    },
    {
      "constant": true,
      "inputs": [
        {
          "name": "_tokenId",
          "type": "uint256"
        }
      ],
      "name": "getToken",
      "outputs": [
        {
          "name": "",
          "type": "uint256"
        },
        {
          "name": "",
          "type": "address"
        },
        {
          "name": "",
          "type": "uint256"
        }
      ],
      "payable": false,
      "stateMutability": "view",
      "type": "function"
    },
    {
      "constant": true,
      "inputs": [
        {
          "name": "_owner",
          "type": "address"
        },
        {
          "name": "_sinIndex",
          "type": "uint256"
        }
      ],
      "name": "ownerHasTokenType",
      "outputs": [
        {
          "name": "",
          "type": "bool"
        }
      ],
      "payable": false,
      "stateMutability": "view",
      "type": "function"
    }
  ],
  "bytecode": "0x60806040523480156200001157600080fd5b50600b60405180807f54686f73652077686f2077657265206e657665722062617074697365642e0000815250601e01905060405180910390209080600181540180825580915050906001820390600052602060002001600090919290919091509060001916905550600b60405180807f54686f73652077686f206761766520696e746f20706c6561737572652e000000815250601d01905060405180910390209080600181540180825580915050906001820390600052602060002001600090919290919091509060001916905550600b60405180807f54686f73652077686f20696e64756c67656420696e206578636573732e000000815250601d01905060405180910390209080600181540180825580915050906001820390600052602060002001600090919290919091509060001916905550600b60405180807f54686f73652077686f20686f61726420616e64207370656e642077617374656681526020017f756c6c792e000000000000000000000000000000000000000000000000000000815250602501905060405180910390209080600181540180825580915050906001820390600052602060002001600090919290919091509060001916905550600b60405180807f54686f736520636f6e73756d656420627920616e67657220616e64206861747281526020017f65642e0000000000000000000000000000000000000000000000000000000000815250602301905060405180910390209080600181540180825580915050906001820390600052602060002001600090919290919091509060001916905550600b60405180807f54686f73652077686f20776f72736869707065642066616c73652069646f6c7381526020017f2e00000000000000000000000000000000000000000000000000000000000000815250602101905060405180910390209080600181540180825580915050906001820390600052602060002001600090919290919091509060001916905550600b60405180807f54686f73652076696f6c656e7420616761696e7374206f74686572732c206f6e81526020017f65e28099732073656c662c20616e6420476f642e000000000000000000000000815250603401905060405180910390209080600181540180825580915050906001820390600052602060002001600090919290919091509060001916905550600b60405180807f54686f73652077686f2075736564206c69657320616e6420646563657074696f81526020017f6e20666f7220706572736f6e616c206761696e2e000000000000000000000000815250603401905060405180910390209080600181540180825580915050906001820390600052602060002001600090919290919091509060001916905550600b60405180807f54686f73652077686f2068617665206265747261796564207468656972206c6f81526020017f766564206f6e65732e0000000000000000000000000000000000000000000000815250602901905060405180910390209080600181540180825580915050906001820390600052602060002001600090919290919091509060001916905550606060405190810160405280602781526020017f68747470733a2f2f676f6f676f6f676167612e73757267652e73682f6a736f6e81526020017f2f302e6a736f6e00000000000000000000000000000000000000000000000000815250600c60006009811015156200050357fe5b0190805190602001906200051992919062000a25565b50606060405190810160405280602781526020017f68747470733a2f2f676f6f676f6f676167612e73757267652e73682f6a736f6e81526020017f2f312e6a736f6e00000000000000000000000000000000000000000000000000815250600c60016009811015156200058857fe5b0190805190602001906200059e92919062000a25565b50606060405190810160405280602781526020017f68747470733a2f2f676f6f676f6f676167612e73757267652e73682f6a736f6e81526020017f2f322e6a736f6e00000000000000000000000000000000000000000000000000815250600c60026009811015156200060d57fe5b0190805190602001906200062392919062000a25565b50606060405190810160405280602781526020017f68747470733a2f2f676f6f676f6f676167612e73757267652e73682f6a736f6e81526020017f2f332e6a736f6e00000000000000000000000000000000000000000000000000815250600c60036009811015156200069257fe5b019080519060200190620006a892919062000a25565b50606060405190810160405280602781526020017f68747470733a2f2f676f6f676f6f676167612e73757267652e73682f6a736f6e81526020017f2f342e6a736f6e00000000000000000000000000000000000000000000000000815250600c60046009811015156200071757fe5b0190805190602001906200072d92919062000a25565b50606060405190810160405280602781526020017f68747470733a2f2f676f6f676f6f676167612e73757267652e73682f6a736f6e81526020017f2f352e6a736f6e00000000000000000000000000000000000000000000000000815250600c60056009811015156200079c57fe5b019080519060200190620007b292919062000a25565b50606060405190810160405280602781526020017f68747470733a2f2f676f6f676f6f676167612e73757267652e73682f6a736f6e81526020017f2f362e6a736f6e00000000000000000000000000000000000000000000000000815250600c60066009811015156200082157fe5b0190805190602001906200083792919062000a25565b50606060405190810160405280602781526020017f68747470733a2f2f676f6f676f6f676167612e73757267652e73682f6a736f6e81526020017f2f372e6a736f6e00000000000000000000000000000000000000000000000000815250600c6007600981101515620008a657fe5b019080519060200190620008bc92919062000a25565b50606060405190810160405280602781526020017f68747470733a2f2f676f6f676f6f676167612e73757267652e73682f6a736f6e81526020017f2f382e6a736f6e00000000000000000000000000000000000000000000000000815250600c60086009811015156200092b57fe5b0190805190602001906200094192919062000a25565b5033600a60006101000a81548173ffffffffffffffffffffffffffffffffffffffff021916908373ffffffffffffffffffffffffffffffffffffffff1602179055506040805190810160405280600881526020017f417274696661717400000000000000000000000000000000000000000000000081525060009080519060200190620009d092919062000a25565b506040805190810160405280600381526020017f41545100000000000000000000000000000000000000000000000000000000008152506001908051906020019062000a1e92919062000a25565b5062000ad4565b828054600181600116156101000203166002900490600052602060002090601f016020900481019282601f1062000a6857805160ff191683800117855562000a99565b8280016001018555821562000a99579182015b8281111562000a9857825182559160200191906001019062000a7b565b5b50905062000aa8919062000aac565b5090565b62000ad191905b8082111562000acd57600081600090555060010162000ab3565b5090565b90565b6126b58062000ae46000396000f300608060405260043610610112576000357c0100000000000000000000000000000000000000000000000000000000900463ffffffff16806301ffc9a714610117578063026f0d7f1461017b57806306fdde03146101b6578063081812fc14610246578063095ea7b3146102b357806318160ddd146102f357806323b872dd1461031e5780632f745c591461037e57806342842e0e146103df57806348dc487e1461043f5780634f6ccce7146104a45780636352211e146104e557806370a082311461055257806395d89b41146105a9578063a22cb46514610639578063b88d4fde14610688578063c87b56dd14610700578063e4b50cb8146107a6578063e985e9c514610821578063f851a4401461089c575b600080fd5b34801561012357600080fd5b5061016160048036038101908080357bffffffffffffffffffffffffffffffffffffffffffffffffffffffff191690602001909291905050506108f3565b604051808215151515815260200191505060405180910390f35b34801561018757600080fd5b506101b4600480360381019080803560001916906020019092919080359060200190929190505050610a47565b005b3480156101c257600080fd5b506101cb610c9b565b6040518080602001828103825283818151815260200191508051906020019080838360005b8381101561020b5780820151818401526020810190506101f0565b50505050905090810190601f1680156102385780820380516001836020036101000a031916815260200191505b509250505060405180910390f35b34801561025257600080fd5b5061027160048036038101908080359060200190929190505050610d39565b604051808273ffffffffffffffffffffffffffffffffffffffff1673ffffffffffffffffffffffffffffffffffffffff16815260200191505060405180910390f35b6102f1600480360381019080803573ffffffffffffffffffffffffffffffffffffffff16906020019092919080359060200190929190505050610dd1565b005b3480156102ff57600080fd5b50610308610e8a565b6040518082815260200191505060405180910390f35b61037c600480360381019080803573ffffffffffffffffffffffffffffffffffffffff169060200190929190803573ffffffffffffffffffffffffffffffffffffffff16906020019092919080359060200190929190505050610e97565b005b34801561038a57600080fd5b506103c9600480360381019080803573ffffffffffffffffffffffffffffffffffffffff16906020019092919080359060200190929190505050611018565b6040518082815260200191505060405180910390f35b61043d600480360381019080803573ffffffffffffffffffffffffffffffffffffffff169060200190929190803573ffffffffffffffffffffffffffffffffffffffff16906020019092919080359060200190929190505050611124565b005b34801561044b57600080fd5b5061048a600480360381019080803573ffffffffffffffffffffffffffffffffffffffff1690602001909291908035906020019092919050505061144a565b604051808215151515815260200191505060405180910390f35b3480156104b057600080fd5b506104cf6004803603810190808035906020019092919050505061152f565b6040518082815260200191505060405180910390f35b3480156104f157600080fd5b5061051060048036038101908080359060200190929190505050611565565b604051808273ffffffffffffffffffffffffffffffffffffffff1673ffffffffffffffffffffffffffffffffffffffff16815260200191505060405180910390f35b34801561055e57600080fd5b50610593600480360381019080803573ffffffffffffffffffffffffffffffffffffffff1690602001909291905050506115fd565b6040518082815260200191505060405180910390f35b3480156105b557600080fd5b506105be61166e565b6040518080602001828103825283818151815260200191508051906020019080838360005b838110156105fe5780820151818401526020810190506105e3565b50505050905090810190601f16801561062b5780820380516001836020036101000a031916815260200191505b509250505060405180910390f35b34801561064557600080fd5b50610686600480360381019080803573ffffffffffffffffffffffffffffffffffffffff16906020019092919080351515906020019092919050505061170c565b005b6106fe600480360381019080803573ffffffffffffffffffffffffffffffffffffffff169060200190929190803573ffffffffffffffffffffffffffffffffffffffff16906020019092919080359060200190929190803590602001908201803590602001919091929391929390505050611848565b005b34801561070c57600080fd5b5061072b60048036038101908080359060200190929190505050611b7e565b6040518080602001828103825283818151815260200191508051906020019080838360005b8381101561076b578082015181840152602081019050610750565b50505050905090810190601f1680156107985780820380516001836020036101000a031916815260200191505b509250505060405180910390f35b3480156107b257600080fd5b506107d160048036038101908080359060200190929190505050611c33565b604051808481526020018373ffffffffffffffffffffffffffffffffffffffff1673ffffffffffffffffffffffffffffffffffffffff168152602001828152602001935050505060405180910390f35b34801561082d57600080fd5b50610882600480360381019080803573ffffffffffffffffffffffffffffffffffffffff169060200190929190803573ffffffffffffffffffffffffffffffffffffffff169060200190929190505050611ca1565b604051808215151515815260200191505060405180910390f35b3480156108a857600080fd5b506108b1611d35565b604051808273ffffffffffffffffffffffffffffffffffffffff1673ffffffffffffffffffffffffffffffffffffffff16815260200191505060405180910390f35b60006380ac58cd7c0100000000000000000000000000000000000000000000000000000000027bffffffffffffffffffffffffffffffffffffffffffffffffffffffff1916827bffffffffffffffffffffffffffffffffffffffffffffffffffffffff191614806109c45750635b5e139f7c0100000000000000000000000000000000000000000000000000000000027bffffffffffffffffffffffffffffffffffffffffffffffffffffffff1916827bffffffffffffffffffffffffffffffffffffffffffffffffffffffff1916145b80610a2f575063780e9d637c0100000000000000000000000000000000000000000000000000000000027bffffffffffffffffffffffffffffffffffffffffffffffffffffffff1916827bffffffffffffffffffffffffffffffffffffffffffffffffffffffff1916145b15610a3d5760019050610a42565b600090505b919050565b600080600b83815481101515610a5957fe5b9060005260206000200154915081336040516020018083600019166000191681526020018273ffffffffffffffffffffffffffffffffffffffff1673ffffffffffffffffffffffffffffffffffffffff166c01000000000000000000000000028152601401925050506040516020818303038152906040526040518082805190602001908083835b602083101515610b065780518252602082019150602081019050602083039250610ae1565b6001836020036101000a0380198251168184511680821785525050505050509050019150506040518091039020600019168460001916141515610b4857600080fd5b60001515610b56338561144a565b1515141515610b6457600080fd5b610b6c610e8a565b9050610c22338285600c87600981101515610b8357fe5b018054600181600116156101000203166002900480601f016020809104026020016040519081016040528092919081815260200182805460018160011615610100020316600290048015610c185780601f10610bed57610100808354040283529160200191610c18565b820191906000526020600020905b815481529060010190602001808311610bfb57829003601f168201915b5050505050611d5b565b7f903521604cced98e46dd0d6fd82d0749b760e1b73a57fd197d10e61ff641d617818433604051808481526020018381526020018273ffffffffffffffffffffffffffffffffffffffff1673ffffffffffffffffffffffffffffffffffffffff168152602001935050505060405180910390a150505050565b60008054600181600116156101000203166002900480601f016020809104026020016040519081016040528092919081815260200182805460018160011615610100020316600290048015610d315780601f10610d0657610100808354040283529160200191610d31565b820191906000526020600020905b815481529060010190602001808311610d1457829003601f168201915b505050505081565b60008160006005600083815260200190815260200160002060009054906101000a900473ffffffffffffffffffffffffffffffffffffffff1673ffffffffffffffffffffffffffffffffffffffff1614151515610d9557600080fd5b6007600084815260200190815260200160002060009054906101000a900473ffffffffffffffffffffffffffffffffffffffff16915050919050565b60008160006005600083815260200190815260200160002060009054906101000a900473ffffffffffffffffffffffffffffffffffffffff1673ffffffffffffffffffffffffffffffffffffffff1614151515610e2d57600080fd5b82610e3781611dab565b1515610e4257600080fd5b6005600085815260200190815260200160002060009054906101000a900473ffffffffffffffffffffffffffffffffffffffff169250610e83838686611eda565b5050505050565b6000600280549050905090565b8060006005600083815260200190815260200160002060009054906101000a900473ffffffffffffffffffffffffffffffffffffffff1673ffffffffffffffffffffffffffffffffffffffff1614151515610ef157600080fd5b838383610efd81611dab565b80610f6657503373ffffffffffffffffffffffffffffffffffffffff166007600083815260200190815260200160002060009054906101000a900473ffffffffffffffffffffffffffffffffffffffff1673ffffffffffffffffffffffffffffffffffffffff16145b1515610f7157600080fd5b8273ffffffffffffffffffffffffffffffffffffffff166005600083815260200190815260200160002060009054906101000a900473ffffffffffffffffffffffffffffffffffffffff1673ffffffffffffffffffffffffffffffffffffffff16141515610fde57600080fd5b60008273ffffffffffffffffffffffffffffffffffffffff161415151561100457600080fd5b61100f878787612040565b50505050505050565b60008060006005600083815260200190815260200160002060009054906101000a900473ffffffffffffffffffffffffffffffffffffffff1673ffffffffffffffffffffffffffffffffffffffff161415151561107457600080fd5b600460008573ffffffffffffffffffffffffffffffffffffffff1673ffffffffffffffffffffffffffffffffffffffff16815260200190815260200160002080549050831015156110c457600080fd5b600460008573ffffffffffffffffffffffffffffffffffffffff1673ffffffffffffffffffffffffffffffffffffffff1681526020019081526020016000208381548110151561111057fe5b906000526020600020015491505092915050565b60008160006005600083815260200190815260200160002060009054906101000a900473ffffffffffffffffffffffffffffffffffffffff1673ffffffffffffffffffffffffffffffffffffffff161415151561118057600080fd5b84848461118c81611dab565b806111f557503373ffffffffffffffffffffffffffffffffffffffff166007600083815260200190815260200160002060009054906101000a900473ffffffffffffffffffffffffffffffffffffffff1673ffffffffffffffffffffffffffffffffffffffff16145b151561120057600080fd5b8273ffffffffffffffffffffffffffffffffffffffff166005600083815260200190815260200160002060009054906101000a900473ffffffffffffffffffffffffffffffffffffffff1673ffffffffffffffffffffffffffffffffffffffff1614151561126d57600080fd5b60008273ffffffffffffffffffffffffffffffffffffffff161415151561129357600080fd5b61129e888888612040565b863b945060008511156114405763150b7a027c0100000000000000000000000000000000000000000000000000000000027bffffffffffffffffffffffffffffffffffffffffffffffffffffffff19168773ffffffffffffffffffffffffffffffffffffffff1663150b7a02338b8a6040518463ffffffff167c0100000000000000000000000000000000000000000000000000000000028152600401808473ffffffffffffffffffffffffffffffffffffffff1673ffffffffffffffffffffffffffffffffffffffff1681526020018373ffffffffffffffffffffffffffffffffffffffff1673ffffffffffffffffffffffffffffffffffffffff16815260200182815260200180602001828103825260008152602001602001945050505050602060405180830381600087803b1580156113d957600080fd5b505af11580156113ed573d6000803e3d6000fd5b505050506040513d602081101561140357600080fd5b81019080805190602001909291905050507bffffffffffffffffffffffffffffffffffffffffffffffffffffffff191614151561143f57600080fd5b5b5050505050505050565b600080600090505b600460008573ffffffffffffffffffffffffffffffffffffffff1673ffffffffffffffffffffffffffffffffffffffff16815260200190815260200160002080549050811015611523578260156000600460008873ffffffffffffffffffffffffffffffffffffffff1673ffffffffffffffffffffffffffffffffffffffff168152602001908152602001600020848154811015156114ed57fe5b906000526020600020015481526020019081526020016000205414156115165760019150611528565b8080600101915050611452565b600091505b5092915050565b60006002805490508210151561154457600080fd5b60028281548110151561155357fe5b90600052602060002001549050919050565b60008160006005600083815260200190815260200160002060009054906101000a900473ffffffffffffffffffffffffffffffffffffffff1673ffffffffffffffffffffffffffffffffffffffff16141515156115c157600080fd5b6005600084815260200190815260200160002060009054906101000a900473ffffffffffffffffffffffffffffffffffffffff16915050919050565b6000808273ffffffffffffffffffffffffffffffffffffffff161415151561162457600080fd5b600460008373ffffffffffffffffffffffffffffffffffffffff1673ffffffffffffffffffffffffffffffffffffffff168152602001908152602001600020805490509050919050565b60018054600181600116156101000203166002900480601f0160208091040260200160405190810160405280929190818152602001828054600181600116156101000203166002900480156117045780601f106116d957610100808354040283529160200191611704565b820191906000526020600020905b8154815290600101906020018083116116e757829003601f168201915b505050505081565b3373ffffffffffffffffffffffffffffffffffffffff168273ffffffffffffffffffffffffffffffffffffffff161415151561174757600080fd5b80600860003373ffffffffffffffffffffffffffffffffffffffff1673ffffffffffffffffffffffffffffffffffffffff16815260200190815260200160002060008473ffffffffffffffffffffffffffffffffffffffff1673ffffffffffffffffffffffffffffffffffffffff16815260200190815260200160002060006101000a81548160ff0219169083151502179055508173ffffffffffffffffffffffffffffffffffffffff163373ffffffffffffffffffffffffffffffffffffffff167f17307eab39ab6107e8899845ad3d59bd9653f200f220920489ca2b5937696c3183604051808215151515815260200191505060405180910390a35050565b60008360006005600083815260200190815260200160002060009054906101000a900473ffffffffffffffffffffffffffffffffffffffff1673ffffffffffffffffffffffffffffffffffffffff16141515156118a457600080fd5b8686866118b081611dab565b8061191957503373ffffffffffffffffffffffffffffffffffffffff166007600083815260200190815260200160002060009054906101000a900473ffffffffffffffffffffffffffffffffffffffff1673ffffffffffffffffffffffffffffffffffffffff16145b151561192457600080fd5b8273ffffffffffffffffffffffffffffffffffffffff166005600083815260200190815260200160002060009054906101000a900473ffffffffffffffffffffffffffffffffffffffff1673ffffffffffffffffffffffffffffffffffffffff1614151561199157600080fd5b60008273ffffffffffffffffffffffffffffffffffffffff16141515156119b757600080fd5b6119c28a8a8a612040565b883b94506000851115611b725763150b7a027c0100000000000000000000000000000000000000000000000000000000027bffffffffffffffffffffffffffffffffffffffffffffffffffffffff19168973ffffffffffffffffffffffffffffffffffffffff1663150b7a02338d8c8c8c6040518663ffffffff167c0100000000000000000000000000000000000000000000000000000000028152600401808673ffffffffffffffffffffffffffffffffffffffff1673ffffffffffffffffffffffffffffffffffffffff1681526020018573ffffffffffffffffffffffffffffffffffffffff1673ffffffffffffffffffffffffffffffffffffffff16815260200184815260200180602001828103825284848281815260200192508082843782019150509650505050505050602060405180830381600087803b158015611b0b57600080fd5b505af1158015611b1f573d6000803e3d6000fd5b505050506040513d6020811015611b3557600080fd5b81019080805190602001909291905050507bffffffffffffffffffffffffffffffffffffffffffffffffffffffff1916141515611b7157600080fd5b5b50505050505050505050565b6060600960008381526020019081526020016000208054600181600116156101000203166002900480601f016020809104026020016040519081016040528092919081815260200182805460018160011615610100020316600290048015611c275780601f10611bfc57610100808354040283529160200191611c27565b820191906000526020600020905b815481529060010190602001808311611c0a57829003601f168201915b50505050509050919050565b600080600060036000858152602001908152602001600020546005600086815260200190815260200160002060009054906101000a900473ffffffffffffffffffffffffffffffffffffffff1660156000878152602001908152602001600020549250925092509193909250565b6000600860008473ffffffffffffffffffffffffffffffffffffffff1673ffffffffffffffffffffffffffffffffffffffff16815260200190815260200160002060008373ffffffffffffffffffffffffffffffffffffffff1673ffffffffffffffffffffffffffffffffffffffff16815260200190815260200160002060009054906101000a900460ff16905092915050565b600a60009054906101000a900473ffffffffffffffffffffffffffffffffffffffff1681565b611d658484612114565b81601560008581526020019081526020016000208190555080600960008581526020019081526020016000209080519060200190611da49291906125b8565b5050505050565b60003373ffffffffffffffffffffffffffffffffffffffff166005600084815260200190815260200160002060009054906101000a900473ffffffffffffffffffffffffffffffffffffffff1673ffffffffffffffffffffffffffffffffffffffff161480611ed35750600860006005600085815260200190815260200160002060009054906101000a900473ffffffffffffffffffffffffffffffffffffffff1673ffffffffffffffffffffffffffffffffffffffff1673ffffffffffffffffffffffffffffffffffffffff16815260200190815260200160002060003373ffffffffffffffffffffffffffffffffffffffff1673ffffffffffffffffffffffffffffffffffffffff16815260200190815260200160002060009054906101000a900460ff165b9050919050565b8273ffffffffffffffffffffffffffffffffffffffff168273ffffffffffffffffffffffffffffffffffffffff1614151515611f1557600080fd5b60006007600083815260200190815260200160002060009054906101000a900473ffffffffffffffffffffffffffffffffffffffff1673ffffffffffffffffffffffffffffffffffffffff16148015611f84575060008273ffffffffffffffffffffffffffffffffffffffff16145b15611f8e57600080fd5b816007600083815260200190815260200160002060006101000a81548173ffffffffffffffffffffffffffffffffffffffff021916908373ffffffffffffffffffffffffffffffffffffffff160217905550808273ffffffffffffffffffffffffffffffffffffffff168473ffffffffffffffffffffffffffffffffffffffff167f8c5be1e5ebec7d5bd14f71427d1e84f3dd0314c0f7b2291e5b200ac8c7c3b92560405160405180910390a4505050565b60006007600083815260200190815260200160002060009054906101000a900473ffffffffffffffffffffffffffffffffffffffff1673ffffffffffffffffffffffffffffffffffffffff161415156120a05761209f83600083611eda565b5b6120aa838261227c565b6120b48282612114565b808273ffffffffffffffffffffffffffffffffffffffff168473ffffffffffffffffffffffffffffffffffffffff167fddf252ad1be2c89b69c2b068fc378daa952ba7f163c4a11628f55a4df523b3ef60405160405180910390a4505050565b60028190806001815401808255809150509060018203906000526020600020016000909192909190915055506001600280549050036003600083815260200190815260200160002081905550816005600083815260200190815260200160002060006101000a81548173ffffffffffffffffffffffffffffffffffffffff021916908373ffffffffffffffffffffffffffffffffffffffff160217905550600460008373ffffffffffffffffffffffffffffffffffffffff1673ffffffffffffffffffffffffffffffffffffffff1681526020019081526020016000208190806001815401808255809150509060018203906000526020600020016000909192909190915055506001600460008473ffffffffffffffffffffffffffffffffffffffff1673ffffffffffffffffffffffffffffffffffffffff168152602001908152602001600020805490500360066000838152602001908152602001600020819055505050565b6000806000806003600086815260200190815260200160002054935060028054905092506002600184038154811015156122b257fe5b90600052602060002001546002858154811015156122cc57fe5b906000526020600020018190555083600360006002600187038154811015156122f157fe5b906000526020600020015481526020019081526020016000208190555060026001840381548110151561232057fe5b906000526020600020016000905560016002818180549050039150816123469190612638565b5060066000868152602001908152602001600020549150600460008773ffffffffffffffffffffffffffffffffffffffff1673ffffffffffffffffffffffffffffffffffffffff168152602001908152602001600020805490509050600460008773ffffffffffffffffffffffffffffffffffffffff1673ffffffffffffffffffffffffffffffffffffffff168152602001908152602001600020600182038154811015156123f157fe5b9060005260206000200154600460008873ffffffffffffffffffffffffffffffffffffffff1673ffffffffffffffffffffffffffffffffffffffff1681526020019081526020016000208381548110151561244857fe5b90600052602060002001819055508160066000600460008a73ffffffffffffffffffffffffffffffffffffffff1673ffffffffffffffffffffffffffffffffffffffff168152602001908152602001600020600185038154811015156124aa57fe5b9060005260206000200154815260200190815260200160002081905550600460008773ffffffffffffffffffffffffffffffffffffffff1673ffffffffffffffffffffffffffffffffffffffff1681526020019081526020016000206001820381548110151561251657fe5b90600052602060002001600090556001600460008873ffffffffffffffffffffffffffffffffffffffff1673ffffffffffffffffffffffffffffffffffffffff168152602001908152602001600020818180549050039150816125799190612638565b506005600086815260200190815260200160002060006101000a81549073ffffffffffffffffffffffffffffffffffffffff0219169055505050505050565b828054600181600116156101000203166002900490600052602060002090601f016020900481019282601f106125f957805160ff1916838001178555612627565b82800160010185558215612627579182015b8281111561262657825182559160200191906001019061260b565b5b5090506126349190612664565b5090565b81548183558181111561265f5781836000526020600020918201910161265e9190612664565b5b505050565b61268691905b8082111561268257600081600090555060010161266a565b5090565b905600a165627a7a7230582095bd00f15dee605ac49c6d467a63f2b725c8c3b7adb794b4dff3e85f6ef2025d0029",
  "source": "pragma solidity ^0.4.24;\n\nimport \"./../eip721/EIP721.sol\";\n\n\ncontract Artifaqt is EIP721 {\n    address public admin;\n\n    bytes32[] private sins;\n\n    // TokenURI metadata\n    string[9] private tokenURILinks;\n\n    // Mapping from token ID to token type\n    mapping(uint256 => uint256) internal typeOfToken;\n\n    constructor() public {\n        // Limbo\n        sins.push(keccak256(\"Those who were never baptised.\"));\n        // Lust\n        sins.push(keccak256(\"Those who gave into pleasure.\"));\n        // Gluttony\n        sins.push(keccak256(\"Those who indulged in excess.\"));\n        // Avarice\n        sins.push(keccak256(\"Those who hoard and spend wastefully.\"));\n        // Wrath\n        sins.push(keccak256(\"Those consumed by anger and hatred.\"));\n        // Heresy\n        sins.push(keccak256(\"Those who worshipped false idols.\"));\n        // Violence\n        sins.push(keccak256(\"Those violent against others, ones self, and God.\"));\n        // Fraud\n        sins.push(keccak256(\"Those who used lies and deception for personal gain.\"));\n        // Treachery\n        sins.push(keccak256(\"Those who have betrayed their loved ones.\"));\n\n        // Token metadata\n        tokenURILinks[0] = \"https://googoogaga.surge.sh/json/0.json\";\n        tokenURILinks[1] = \"https://googoogaga.surge.sh/json/1.json\";\n        tokenURILinks[2] = \"https://googoogaga.surge.sh/json/2.json\";\n        tokenURILinks[3] = \"https://googoogaga.surge.sh/json/3.json\";\n        tokenURILinks[4] = \"https://googoogaga.surge.sh/json/4.json\";\n        tokenURILinks[5] = \"https://googoogaga.surge.sh/json/5.json\";\n        tokenURILinks[6] = \"https://googoogaga.surge.sh/json/6.json\";\n        tokenURILinks[7] = \"https://googoogaga.surge.sh/json/7.json\";\n        tokenURILinks[8] = \"https://googoogaga.surge.sh/json/8.json\";\n\n        // Set owner\n        admin = msg.sender;\n\n        // Default name and symbol\n        name = \"Artifaqt\";\n        symbol = \"ATQ\";\n    }\n\n    function claimToken(\n        bytes32 _sin,\n        uint256 _sinIndex) public\n    {\n        bytes32 sinHash = sins[_sinIndex];\n\n        // Make sure it's the correct sin\n        require(_sin == keccak256(abi.encodePacked(sinHash, msg.sender)));\n\n        // Make sure the user does not have this type of token\n        require(ownerHasTokenType(msg.sender, _sinIndex) == false);\n\n        // Create and add token\n        uint256 tokenId = totalSupply();\n        addToken(msg.sender, tokenId, _sinIndex, tokenURILinks[_sinIndex]);\n\n        emit TokenClaimed(tokenId, _sinIndex, msg.sender);\n    }\n\n    function getToken(\n        uint256 _tokenId\n    ) public view returns (uint256, address, uint256) {\n        return (\n            allTokensIndex[_tokenId],\n            ownerOfToken[_tokenId],\n            typeOfToken[_tokenId]\n        );\n    }\n\n    function ownerHasTokenType(\n        address _owner,\n        uint256 _sinIndex\n    ) public view returns (bool) {\n        for (uint256 i = 0; i < ownedTokens[_owner].length; i++) {\n            if (typeOfToken[ownedTokens[_owner][i]] == _sinIndex) {\n                return true;\n            }\n        }\n        return false;\n    }\n\n    function addToken(\n        address _to,\n        uint256 _tokenId,\n        uint256 _tokenType,\n        string _tokenURI\n    ) internal {\n        super.addToken(_to, _tokenId);\n\n        // Save token type\n        typeOfToken[_tokenId] = _tokenType;\n\n        // Save tokenURI\n        tokenURIs[_tokenId] = _tokenURI;\n    }\n\n    event TokenClaimed(uint256 tokenId, uint256 sinType, address player);\n}",
  "sourcePath": "/Users/jsknapik/Documents/consensys/repositories/artifaqt/contract/contracts/artifaqt/Artifaqt.sol",
  "compiler": {
    "name": "solc",
    "version": "0.4.24+commit.e67f0147.Emscripten.clang"
  },
  "schemaVersion": "2.0.1",
  "updatedAt": "2018-10-13T18:19:51.590Z"
}